:02000002B0004C
:1040000000400B003A650B00000006000C000502A2
:084010000401D51700000000B7
:0440180090610B00A8
:10401C00034613F8012B002AFBD1181A01387047FC
:10402C0009480A49884208B505D0094A824202D09B
:10403C00121A01F0FDFF0748074A0021121A02F07C
:10404C0005F8014808BD00BFC4E50320A0640B00BF
:10405C0030E6032030E60320FCE7032070B5074E62
:10406C00074C01F0E3FBA41BA4080025AC4200D1D3
:10407C0070BD56F8043B98470135F7E754640B00C4
:10408C007C640B0000F016B808B500F081F8BDE8B0
:10409C00084001F083BB01F0FBB801F0F9B801F066
:1040AC00FFB80078B0FA80F0400970470123037024
:1040BC007047000073B5314800F0E4FB2F4800F066
:1040CC003DFB48212D4800F00FFB01F0BBFC4FF4E9
:1040DC00E13101F0A7FC002000F0D6FE41F288355A
:1040EC000446002000F0D0FE001B61F10001A84244
:1040FC0071F1000307D201F0A5FC01F097FC10B997
:10410C0001F0B6F8EDE701F09DFC01F08FFC01F039
:10411C0099FC1B4901F0B1FA01F05EFF062302463F
:10412C00009318480C235A2100F08BF928B901F0A0
:10413C0089FC154901F0A1FAFEE701F083FC134953
:10414C000E4D01F09AFA0024264614F0030308BF22
:10415C000093A1B207BF332340220096CC2318BF93
:10416C00FF222846013400F0AEFA3B2CEDD1034877
:10417C0002B0BDE8704000F0E1BA00BFB0E6032029
:10418C00A4610B003CE60320D1610B00F1610B0034
:10419C002DE9F74F4F48DFF854914F4D4F4E504F8C
:1041AC00DFF84C81DFF84CA100F0F6F80024A9F8F8
:1041BC000000B9F80030052C23FA04F349D8D807CD
:1041CC0013D53B88E340D9070FD401F03BFC2146C3
:1041DC000A2201F05CFA01F035FC514601F04DFA6F
:1041EC002B7813B901222A70336001340C2C05F1A1
:1041FC00010506F10406DCD1DFF8FCB0394DDFF81F
:10420C00FC80394F4FF0060A00261BF8013B002BAF
:10421C004DD000F031FED8F80030C31A632B46D9CC
:10422C002C68C8F80000002C23DD043C2B68A3424A
:10423C001FDD002C0BDB013BA342A1B2009607BF94
:10424C00CC23FF2233234022384600F03CFA0134C1
:10425C00ECE7DA07C9D53B88E340DB07C5D401F0AE
:10426C00F1FB21460A2201F012FA01F0EBFB414668
:10427C00B4E72C682B68DA1CA2420EDB3A2C0CDC5F
:10428C00A342A1B2009607BFCC23FF2233234022C6
:10429C00384600F018FA0134ECE7384600F04EFAD4
:1042AC002B6804333A2B2B60C8BF0BF8016C0AF156
:1042BC00010ABAF10C0F05F1040508F10408A4D1A8
:1042CC00B9F80020064B0A201A8003B0BDE8F04F65
:1042DC0001F038BA3CE6032074E6032044E60320E0
:1042EC0042E603205CE60320B0E6032040E6032010
:1042FC0009620B00FF610B007AE6032098E60320AD
:10430C0007B50021012000F027FF0C4B0022C3E968
:10431C000022A2F580329A60032000F00DFF0623E4
:10432C000093042205233B21054800F0B6F905480B
:10433C0003B05DF804EB00F007B800BF30E60320D3
:10434C00B0E603203CE6032000220260704700B573
:10435C000A4689B001230021CDE90013016802A8A7
:10436C0000F0A0FA02A800F058FBC0B209B05DF84A
:10437C0004FB00B50A4689B000230121CDE90031C8
:10438C000223016802A800F08DFA02A800F045FB98
:10439C0080B209B05DF804FB08B50021FFF7E9FF16
:1043AC00C0F30B0008BD2DE9F0434FF001088FB0AE
:1043BC000024CDE900480D46434601680646914667
:1043CC0002A85E2200F06EFA02A800F026FB5E2D19
:1043DC00074609D0A5F17303072B05D922462146C0
:1043EC0002A800F0BAFA44464FF0000801233168E5
:1043FC002A46CDE9008308A800F054FA4246494603
:10440C0008A800F0AAFA24B14246F9B202A800F0BA
:10441C00A4FA0FB0BDE8F083F8B505460F46164672
:10442C00412421463A462846FFF7BDFF611C023461
:10443C003246C9B22846E4B2FFF7B5FF592CF0D189
:10444C00F8BD2DE9F041044600680F4690461E4623
:10445C0010B11021FFF723FE1020FFF71CFE0546BC
:10446C0018B14246394600F017FC25602846012158
:10447C0000F02EFC054618B900252846BDE8F08151
:10448C00632280212046FFF78EFF012001F05AF9AC
:10449C0000225E212046FFF786FF5D212046FFF7B4
:1044AC0056FF2428E8D19DF8182031462046FFF706
:1044BC00B3FF204601222B21FFF775FF2046012276
:1044CC002C21FFF770FF20460E222D21FFF76BFFEA
:1044DC00204600222E21FFF766FF204601222F21C5
:1044EC00FFF761FF204605223021FFF75CFF2046D5
:1044FC0001223121FFF757FF204600223221FFF71E
:10450C0052FF204600223321FFF74DFF20460022A8
:10451C003421FFF748FF204600223521FFF743FFE7
:10452C00204600225B21FFF73EFF204610225C2133
:10453C00FFF739FF204620225D21FFF734FF8C2244
:10454C005E212046FFF72FFF97E700001F2886BF4C
:10455C00054A00F01F004FF0A042012303FA00F0BF
:10456C00C2F80C05704700BF0003005010B504469C
:10457C000121807801F0AAFCE078012101F0A6FC71
:10458C000E49A3780A68180102EB0313105C5B78E0
:10459C0003F01F0343EA4010FFF7D8FFE3780A68E3
:1045AC00180102EB0313105C5B7803F01F03BDE8EA
:1045BC00104043EA4010FFF7C9BF00BFCCE6032010
:1045CC00F8B5254F254D06460924013C14F0FF048F
:1045DC0041D0B3783A68180102EB0313105C5B7896
:1045EC0003F01F0343EA40100B0631D51F28C6BF4A
:1045FC0000F01F002A464FF0A042012303FA00F0FE
:10460C00C2F808053A68F378180102EB0313105C42
:10461C005B7803F01F0343EA40131F2BC6BF03F064
:10462C001F03AC464FF0A04C012000FA03F3CCF86A
:10463C000835F378180102EB0313105C5B7803F078
:10464C001F0343EA40104900FFF780FFC9B2BCE7E3
:10465C00FFF77CFFD6E7F8BDCCE603200003005043
:10466C000288806802EB4202002101F0EFBC38B5F1
:10467C00044680680D4608B100F012FE05EB4500BB
:10468C0080B200F005FEA06028B125802046BDE870
:10469C003840FFF7E5BF208038BD38B59DF8105085
:1046AC00C37000230371836005F003030373C5F328
:1046BC008103C5F301150446827043738573FFF7BC
:1046CC00D6FF204638BD10B504888C420BD98468BF
:1046DC0001EB41012144047B0A55427B8B54837BC3
:1046EC009DF80820CA5410BD0131017170470000BB
:1046FC0013B50B4C2178BFF35B8F11F001010BD17B
:10470C0020460191FFF7CDFC019928B1054800F036
:10471C0023FE2046FFF7CAFC024802B010BD00BFC2
:10472C00C0E60320C4E6032007B50190FFF7E0FFC5
:10473C00019903B05DF804EB00F034BF2DE9F041B2
:10474C0084680746002C00F085808378068890F8F2
:10475C000480FF2B41D10020FFF7E6FF0020FFF77C
:10476C00E3FF0020FFF7E0FF0020FFF7DDFF3B79C0
:10477C00EBB1FF20FFF7D8FFE51C14F8010B10FB81
:10478C0008F0000AFFF7D0FFAC42F6D1013EB6B2FA
:10479C00002EEED100243A88E3B20F32B3EB121F95
:1047AC0004F1010456DAFF20FFF7BEFFF3E70334F0
:1047BC00FF20FFF7B9FF14F8030CFFF7B5FF013E1C
:1047CC0014F8020CFFF7B0FFB6B214F8010CFFF7A7
:1047DC00ABFF0334002EEBD1DCE704250021384677
:1047EC00013DFFF7EDFE15F0FF05F7D13B7903B363
:1047FC00FF213846FFF7E4FEE51C14F8011B11FB02
:10480C0008F1090A3846FFF7DBFEAC42F5D1013E50
:10481C00B6B2002EECD100243A88E3B20F32B3EBDF
:10482C00121F04F1010415DAFF213846FFF7C8FE08
:10483C00F2E7FF213846FFF7C3FEE51C14F8011B15
:10484C003846FFF7BDFEAC42F8D1013EB6B2002EA1
:10485C00EFD1E0E7BDE8F08108B5FFF749FF00F0C4
:10486C0085FDFFF745FF082100F076FEFFF740FFBE
:10487C00012100F08FFDFFF73BFFBDE80840002150
:10488C0000F09CBD8378FF2B01D1FFF7E5BFFFF74C
:10489C006DBE000008B500F0BFFA014B186008BDF2
:1048AC00CCE6032030B50025C0E9001542819DF807
:1048BC0010109DF80C20456141738273037330BD59
:1048CC00F0B54589847A85B0034600688DF80C40B4
:1048DC002D0A0E4617468DF80D5040B15B7B0193A7
:1048EC0003AB0093012300F002FA05B0F0BD586849
:1048FC000028FAD093F808E093F80DC0BEF1030F2E
:10490C000CD10CF1010325F0010500938DF80C502E
:10491C008DF80D4003AB00F079F9E6E7BEF1000F1E
:10492C0009D104F07F048DF80C40CDF800C003AB26
:10493C003A463146EFE7BEF1020F02D164F07F0434
:10494C00F1E7BEF1010F01BF9DF80C3003F07F03BE
:10495C0043F040038DF80C30E7E7F0B40B4602B996
:10496C00027B042A14D800F10F05436184182946F0
:10497C00844209D0877BDEB227B92E701B0A013521
:10498C00013CF5E7A673F9E72046F0BCFFF798BFAA
:10499C000020F0BC70477FB54689857A8DF80C50A5
:1049AC0004460068360A0B468DF80D6040B10021B4
:1049BC00CDE9002103A9627B00F007FA04B070BDB9
:1049CC0060680028FAD0217A647B03290DD146F067
:1049DC000106FF21CDE900218DF80C608DF80D50FA
:1049EC00621C03A900F034F9E8E741B965F07F05D2
:1049FC008DF80C50FF21CDE900212246F1E7022968
:104A0C0002D105F07F05F3E7012902BF9DF80C10D8
:104A1C0061F03F018DF80C10ECE738B500F10F0593
:104A2C00027B29460446FFF7B6FF78B1227B294664
:104A3C0022440020A2420BD00302A07B20B9907B21
:104A4C001843013A0131F5E70878F9E74FF0FF30E8
:104A5C0038BD00002DE9F04F0446006885B00D46C6
:104A6C0040B10023009313460A4600F0A1FD05B0A7
:104A7C00BDE8F08F237BA068484FB7FBF0F7002B05
:104A8C000B780CBF4FF0010B4FF0800B1BEA030FA0
:104A9C0001EB02030CBF4FF001094FF00009FFB20C
:104AAC000393039BAB42E2D095F800A05E464FF017
:104ABC00000817B1384600F0D7F9637B13F0FD0FEF
:104ACC0041D194F910305A1C0FD01AEA060114BFC8
:104ADC00012300234B4508D06369606A1A680029DA
:104AEC002CD002431A604FF00109A169E36A0A68ED
:104AFC0013430B6017B1384600F0B6F994F9113036
:104B0C00013306D0E3691A68A36A1A4218BF46EA51
:104B1C000808A169E36A0A6822EA03030B6094F9A6
:104B2C001130013318BF85F80080237B002B32D164
:104B3C007600F6B2002EBCD10135B2E722EA0002B3
:104B4C001A608946D1E7A169E36A0A6813430B60CE
:104B5C0017B1384600F088F994F91030013308D0B9
:104B6C006369616A1A681AEA060F14BF0A438A431A
:104B7C001A60A169E36A0A6822EA03030B6094F9DC
:104B8C0011300133CBD0E3691A68A36A1A4218BFFB
:104B9C0046EA0808C3E77608CCE700BF20A1070067
:104BAC0007B501228DF807100DF10701FFF752FF31
:104BBC009DF8070003B05DF804FB03681BB1416866
:104BCC00184600F029BC7047006808B100F00ABC18
:104BDC00704790F90E00431C03D0C9B280B201F0AB
:104BEC0086B9704710B50446FFF7E7FF2046002151
:104BFC00BDE81040FFF7EDBF10B501210446FFF7EB
:104C0C00E8FF2046BDE81040FFF7DEBF2DE9F0417C
:104C1C001C4606460D461746FFF7E4FF069B04EBC1
:104C2C000308444508D12F44BD420BD015F8011B95
:104C3C003046FFF7B5FFF7E714F8011B3046FFF7D6
:104C4C00AFFFEEE73046FFF7D7FF0120BDE8F0815C
:104C5C002DE9F0410D4617469DF81C8006461C4672
:104C6C00FFF7C0FF2F44BD420AD1069BE518AC42AA
:104C7C000CD041463046FFF793FF04F8010BF6E7E2
:104C8C0015F8011B3046FFF78BFFECE73046FFF7BA
:104C9C00B3FF0120BDE8F0814260002202722022A5
:104CAC000170C260704710B5037A044653B1217885
:104CBC00606800F0B8FF606800F0BDFFB0FA80F0EB
:104CCC00400910BD012100F003F80028EFD1F8E7EE
:104CDC0038B5044640680D4600F076FF012020727E
:104CEC0025B12046BDE83840FFF7DDBF38BD2DE9C2
:104CFC00F843DDE908961F46C368154632449A42CC
:104D0C000446884602D90020BDE8F8830178406843
:104D1C0000F089FF7EB9606803682A46DB6841466B
:104D2C0098478542EFD16068394600F080FFB0FAB1
:104D3C0080F04009E8E7B9F1000FECD06068036837
:104D4C003246DB68494698478642DCD1E3E72DE9D9
:104D5C00F041154604460E46D2B20178406800F088
:104D6C0050FF85420DD100271FFA87F8A84507F19F
:104D7C00010709D2606803685B69984706F8080068
:104D8C00F2E70020BDE8F0810120FBE72DE9F843B4
:104D9C0007468846164699460025B54212D2FA684F
:104DAC00741B944228BF1446331BAB4294BF4B4632
:104DBC000023224608EB05013846FFF7C8FF10B167
:104DCC002544EAE70120BDE8F88373B51D460023AE
:104DDC00CDE900339DF81C30069E0446FFF787FF93
:104DEC0040B1012332462946204602B0BDE870404E
:104DFC00FFF7CCBF02B070BD08B5024B1B689B68B7
:104E0C00019308BD6802030008B5024B1B68DB6800
:104E1C00019308BD6802030008B5024B1B681B68B0
:104E2C00019308BD2C02030008B5024B1B689B685C
:104E3C00019308BD2C02030008B5024B1B68DB680C
:104E4C00019308BD2C02030008B5024B1B681B69BB
:104E5C00019308BD2C02030008B5024B1B685B686C
:104E6C00019308BD1802030008B5024B1B68DB68F0
:104E7C00019308BD1802030008B5024B1B685B695F
:104E8C00019308BD1802030008B5024B1B68DB6DCB
:104E9C00019308BD1802030008B5024B1B685B6C3C
:104EAC00019308BD4802030008B5024B1B685B69FF
:104EBC00019308BD6402030008B5024B1B68DB6854
:104ECC00019308BD3C02030008B5024B1B681B692B
:104EDC00019308BD3C02030008B5024B1B685B69DB
:104EEC00019308BD3C02030008B5024B1B689B698B
:104EFC00019308BD3C02030008B5024B1B68DB693B
:104F0C00019308BD3C02030008B5024B1B681B6AE9
:104F1C00019308BD3C02030008B5024B1B689B6A59
:104F2C00019308BD3C02030008B5024B1B681B6CC7
:104F3C00019308BD3C02030008B5024B1B68DB68FB
:104F4C00019308BD2802030008B5024B1B689B693E
:104F5C00019308BD2802030008B5024B1B68DB69EE
:104F6C00019308BD2802030008B5024B1B681B6A9D
:104F7C00019308BD2802030008B5024B1B685B6A4D
:104F8C00019308BD2802030008B5024B1B689B6AFD
:104F9C00019308BD2802030008B5024B1B68DB6AAD
:104FAC00019308BD2802030008B5024B1B681B6B5C
:104FBC00019308BD2802030008B5024B1B685B6B0C
:104FCC00019308BD2802030008B5024B1B681B6C3B
:104FDC00019308BD2802030008B5024B1B681B6D2A
:104FEC00019308BD2802030008B5024B1B681B681F
:104FFC00019308BD3002030008B5024B1B689B6887
:10500C00019308BD3002030008B5024B1B68DB6836
:10501C00019308BD3002030008B5024B1B681B69E5
:10502C00019308BD3002030008B5024B1B685B6995
:10503C00019308BD3002030008B5024B1B68DB6905
:10504C00019308BD3002030008B5024B1B681B6AB4
:10505C00019308BD3002030008B5024B1B685B6A64
:10506C00019308BD3002030008B5024B1B689B6A14
:10507C00019308BD3002030008B5024B1B689B6B03
:10508C00019308BD3002030008B5024B1B68DB6BB3
:10509C00019308BD3002030008B5024B1B681B6C62
:1050AC00019308BD3002030008B5024B1B685B6C12
:1050BC00019308BD3002030008B5024B1B681B6846
:1050CC00019308BD4C02030008B5024B1B685B68DA
:1050DC00019308BD4C02030008B5024B1B681B6909
:1050EC00019308BD4C02030008B5024B1B685B69B9
:1050FC00019308BD4C02030008B5024B1B689B6969
:10510C00019308BD4C02030008B5024B1B68DB6918
:10511C00019308BD4C02030008B5024B1B681B6AC7
:10512C00019308BD4C02030008B5024B1B689B6A37
:10513C00019308BD4C02030008B5024B1B685B6869
:10514C00019308BD2002030008B5024B1B685B6984
:10515C00019308BD2002030008B5024B1B68DB6AF3
:10516C00019308BD2002030008B5034B1B68D3F85C
:10517C008830019308BD00002002030008B5034BE2
:10518C001B68D3F89430019308BD00002002030083
:10519C0008B5024B1B685B68019308BD4002030015
:1051AC0008B5024B1B689B68019308BD40020300C5
:1051BC0008B5024B1B68DB68019308BD4002030075
:1051CC0008B5024B1B681B69019308BD4002030024
:1051DC0008B5024B1B685B69019308BD40020300D4
:1051EC0008B5024B1B689B69019308BD4002030084
:1051FC0008B5024B1B68DB69019308BD4002030034
:10520C0008B5024B1B681B6A019308BD40020300E2
:10521C0008B5024B1B681B6B019308BD40020300D1
:10522C0008B5024B1B685B6B019308BD4002030081
:10523C0008B5024B1B681B6C019308BD40020300B0
:10524C0008B5024B1B685B6C019308BD4002030060
:10525C0008B5024B1B685B6D019308BD400203004F
:10526C0008B5024B1B689B6D019308BD40020300FF
:10527C0008B5024B1B689B68019308BD44020300F0
:10528C0008B5024B1B68DB6B019308BD440203009D
:10529C0008B5024B1B681B68019308BD1C02030078
:1052AC0008B5024B1B685B68019308BD1C02030028
:1052BC0008B5024B1B681B6C019308BD1C02030054
:1052CC0008B5024B1B685B6C019308BD1C02030004
:1052DC00002240681146FFF793BF00224068114638
:1052EC00FFF79EBF40680022FFF792BF4068002284
:1052FC0081F00101FFF77CBF002340681A46194674
:10530C00FFF76EBF002340681A461946FFF760BFCF
:10531C00002240681146FFF753BF00224068114637
:10532C00FFF73EBF406800220221FFF741BF002378
:10533C0040681A46FFF72CBF024B03225A60024A00
:10534C001A607047D0E603201C620B000021FFF7A7
:10535C00ABBE0021FFF7A0BE10B504460846217075
:10536C00FFF76AFE00236360204610BD13B50446A8
:10537C000078FFF7EEFF58B9207801904FF6FF71D7
:10538C00FFF732FE019802B0BDE81040FFF7DEBF18
:10539C0002B010BD13B5044600780191FFF7D9FF98
:1053AC00019948B920780190FFF726FE019802B0C8
:1053BC00BDE81040FFF7CABF02B010BD13B50446DC
:1053CC0000780191FFF7C5FF019948B92078019049
:1053DC00FFF71AFE019802B0BDE81040FFF7B6BF08
:1053EC0002B010BD0078FFF7B1BF0000400830B527
:1053FC001860002418688842E5B206D90134082CDC
:10540C0002D040081860F5E70725024B5B5D13706E
:10541C0030BD00BF58620B002DE9F04306468FB03B
:10542C0000780C46FFF795FF00281BDB357814221B
:10543C00002109A800F00AFE0B23002209A9284626
:10544C00ADF82430FFF708FE9DF82D3013B19DF810
:10545C002C5055B10027B946B846012523795DB1CA
:10546C00C3B100200FB0BDE8F083DDF830809DF8AB
:10547C0034909DF83570F1E7002B35D1A368434586
:10548C0008D18DF820908DF82170BDF82020A389CB
:10549C009A42E6D00023A1688DF80F300A9804AB2D
:1054AC000DF10F02FFF7A2FF217985B989B9A36825
:1054BC0043450ED38DF820908DF82170BDF8202037
:1054CC00A3899A4205D1049B434502D1C9E700291F
:1054DC00F9D100230193637B00939DF80F20237B6C
:1054EC003078FFF7D1FDBCE7CDE900552B462A46B5
:1054FC000121F5E72DE9F04188B00023044600783E
:10550C0002930E461746FFF724FF054600BB94F89E
:10551C0000800146142203A800F098FD0B232A46B4
:10552C0003A94046ADF80C30FFF796FD04988DF8B2
:10553C00075002AB0DF1070207FB06F1FFF756FF10
:10554C0020789DF80710FFF767FD2078FFF7FEFE27
:10555C00029808B0BDE8F08138B5044600780D46D5
:10556C00FFF7F7FE0346D0B9616899B10C4A12F8FF
:10557C00010B854202D00133082BF8D10133DBB289
:10558C000122D9402046FFF7B5FF2078BDE838400E
:10559C00FFF7DCBE20782946FFF73EFDF5E738BD66
:1055AC0058620B0008B50078FFF73EFDC0B208BD8D
:1055BC0030B587B004460A9D00950078FFF754FD7E
:1055CC003DB9207802A9FFF757FD9DF81430DB0791
:1055DC00F7D407B030BD0000054B02221A60054B12
:1055EC00054A9A600020C3E90000FFF7A5BD00BF83
:1055FC00E4E60320D8E603200000FFFF0248002366
:10560C000360FFF749BC00BFE8E60320F8B5064687
:10561C000D468F180024BD420CD0336815F8011BC1
:10562C009B6830469847031E01DB1C44F3E7002CB3
:10563C0008BF1C462046F8BD13B50446084659B1B0
:10564C000191FEF7E5FC23680199DB6802462046D0
:10565C0002B0BDE81040184702B010BD03689B684B
:10566C00184738B50D210546FFF7F8FF0A21044607
:10567C002846FFF7F3FF204438BD38B50546FFF741
:10568C00DBFF04462846FFF7ECFF204438BD30B55D
:10569C008BB00023012A8DF8243098BF0A2209AC64
:1056AC000D46B1FBF2F101FB125303F0FF03092B82
:1056BC0094BF30333733DBB2AA4204F8013DEFD943
:1056CC002146FFF7B9FF0BB030BD10B50446FFF70C
:1056DC00D3FBE060236820465B699847002808DA12
:1056EC00FFF7CAFBE368C01AA3689842F2D34FF0E5
:1056FC00FF3010BD2DE9F04107460C468E180D46C3
:10570C00B542A5EB040807D03846FFF7DEFF031EB1
:10571C0002DB05F8013BF3E74046BDE8F0810000F1
:10572C00014B024A1A607047ECE6032060620B00E2
:10573C00024B1A68024B1A60704700BFC4E5032085
:10574C00F0E603200021FFF7FFBC0000014B002214
:10575C009A607047F4E60320014B1860704700BF55
:10576C00C8E5032008B50B4B43B100F06BF9036897
:10577C001B699847002801DDAFF30080064B43B14D
:10578C0000F0EAFB03681B699847002801DDAFF3C2
:10579C00008008BD000000000000000008B5FFF705
:1057AC00E1FFFFF769FB014B186008BD4CE70320D4
:1057BC000548064A064908B5121A00F039FC054B93
:1057CC00054A1A6008BD00BF00F4032004F403204E
:1057DC000C650B0000F403201E1C279A07B5002350
:1057EC0000931A466FF07701FFF7C8FC03B05DF821
:1057FC0004FB000007B543880A2B08D0502B0BD1B3
:10580C00094B1B684BB103B05DF804EB1847FFF76D
:10581C00E5FF03B05DF804FB002300931A466FF01C
:10582C007701FFF7ABFCF4E708E7032010B512484B
:10583C000021FFF745FD114B1A68114B9A42114B91
:10584C000CBF012200221A7001D0FFF7B1FFFFF745
:10585C0003FB044600F002FC0B4B13B12046AFF3E4
:10586C00008000210848FFF70BFDBDE810400748F9
:10587C000021FFF779BC00BF65570B0000F4032033
:10588C001E1C279A04E703200000000001580B009F
:10589C00704710B518210446FEF701FC204610BDD8
:1058AC00F0B5037D062B8DB00E4600F104074FF0CA
:1058BC00000412D000F1080515F8011D0A2230462B
:1058CC00FFF7E5FEAF42044419D0002CF4D02E2192
:1058DC003046FFF7C3FE0444EEE72F236A463946F1
:1058EC000A208DF80040FFF7DFFA6846FEF790FBC0
:1058FC0033680246DB6869463046984704462046C2
:10590C000DB0F0BD10B5054B0446112240F8043B18
:10591C00002100F09BFB204610BD00BF88620B00ED
:10592C000346074A10B543F8042B01F1100251F855
:10593C00044B43F8044B9142F9D10A781A7010BD0C
:10594C0088620B0010B59DF8084044EA032343EA33
:10595C00024242EA016104234160037510BD00005C
:10596C0007B5064B0360CB7800938B784A7809789F
:10597C00FFF7E8FF03B05DF804FB00BF88620B0083
:10598C00417470477047704708B50021007CFFF7E1
:10599C00B3FB40EAE07008BD08B50121007CFFF7BD
:1059AC00ABFB40EAE07008BD08B5007CFFF79CFB40
:1059BC0020EAE07008BD08B5007CFFF78DFB20EAFB
:1059CC00E07008BD13B50446007C0191FFF78CFB19
:1059DC000028019901DC607C20B1207CFFF794FB4E
:1059EC0020EAE07002B010BD007CFFF795BB10B54B
:1059FC0014210446FEF753FB204610BD10B54FF49E
:105A0C007A73044608460021C4E90113044B236051
:105A1C000123207463741146FFF74EFB204610BD22
:105A2C009C620B00007C0022FFF74EBB007CFFF752
:105A3C007BBB10B514220446002100F007FB204666
:105A4C0010BD000010B50F4C88B003A8FFF7F1FF94
:105A5C002178BFF35B8F11F001010FD1204601912A
:105A6C00FEF71FFB019948B103AA0748FFF7C6FFD1
:105A7C002046FEF71BFB054800F0D4FA024808B09C
:105A8C0010BD00BF0CE7032010E7032091590B0059
:105A9C0070474174704708B5007CFFF73DFA20EA67
:105AAC00E07008BD08B5007CFFF70EFA20EAE07044
:105ABC0008BD08B5007CFFF717FA40EAE07008BD96
:105ACC0008B5007CFFF708FA40EAE07008BD007CDE
:105ADC00FFF712BA37B5457C04462DB1207C03B0D4
:105AEC00BDE83040FFF7E8B9007C0191FFF714FAEC
:105AFC0000280199F2DC284603B030BD10B5142102
:105B0C000446FEF7CCFA204610BD000010B54FF449
:105B1C007A730446084611460022C4E90123044B5B
:105B2C002360012320746374FFF7FEF9204610BD37
:105B3C00D0620B007047F8B5064615460C468F1818
:105B4C00BC4206D0336814F8011B9B68304698475A
:105B5C00F6E72846F8BD007C0022FFF705BA007C6A
:105B6C000021FFF709BA007C0021FFF70DBA007C79
:105B7C000021FFF711BA007C0021FFF715BA10B510
:105B8C0014210446FEF78BFA204610BD38B50446A6
:105B9C0015464FF47A730022C4E90123094B217492
:105BAC00084623602946FFF70FFABF3008D16B690E
:105BBC00DB0705D56868FFF773FBE868FFF770FB38
:105BCC00204638BD04630B000023007C1A4619469E
:105BDC00FFF7B2B97FB500221423CDE90122ADF84D
:105BEC0004300B788DF808304B680393CB68049322
:105BFC00007C0B7A059301A9FFF7EEF907B05DF86D
:105C0C0004FB1FB5003B8DF800104FF064010391AD
:105C1C0018BF0123694601928DF80830FFF7DAFFAF
:105C2C0005B05DF804FB007C0022FFF78DB9007C09
:105C3C000022FFF791B90121FFF7F9BF002240685C
:105C4C001146FFF7BDBA002240681146FFF7D8BADB
:105C5C00002240681146FFF7E3BA40680022FFF7C4
:105C6C00D7BA4068002281F00101FFF7C1BA0023C6
:105C7C0040681A461946FFF7B3BA002340681A4623
:105C8C001946FFF7A5BA002240681146FFF788BAFB
:105C9C00406800220221FFF78BBA002340681A46A5
:105CAC00FFF776BA024B04225A60024A1A60704718
:105CBC0024E7032030630B00002340681A46FFF7EB
:105CCC0067BA406800220221FFF772BA00224068CE
:105CDC001146FFF765BA002240681146FFF770BA0B
:105CEC00002340681A461946FFF772BA0023406831
:105CFC001A461946FFF774BA40680021FFF798BAA4
:105D0C0040680021FFF79CBA4068002281F0010135
:105D1C00FFF76EBA40680022FFF77ABA002240689B
:105D2C001146FFF77DBA002240681146FFF768BAAA
:105D3C0040680021FFF794BA2DE9F04395B0144662
:105D4C000D460746FFF7DEFD00211C220DA8009131
:105D5C0000F07CF940230C9320466B460CAA0021E2
:105D6C00FFF752F8044600284BD10246012168681F
:105D7C00FFF726FA0221804622466868FFF720FAD0
:105D8C00009E81462146002E3BD0002939D17368F4
:105D9C00022B03D00A2B11D0F669F4E7B8F1000FEF
:105DAC00FAD0716906A8043107ADFFF7D9FD0FCD04
:105DBC003C1D0FC42B6823704146EDE7B9F1000F71
:105DCC00EAD07469102201A800F040F906238DF87E
:105DDC00143001AD04F108031834186859682A46C8
:105DEC0003C20833A3421546F7D101A906A807AD93
:105DFC00FFF796FD0FCD3C1D0FC42B682370494651
:105E0C00CAE70098FEF7F8FF384615B0BDE8F083F6
:105E1C00033802289ABF024B53F820000148704700
:105E2C006C630B002CE7032008B500224068FFF7D9
:105E3C000FFABDE80840FFF7EBBF0000024B034A26
:105E4C001A6000225A6070472CE7032080630B0015
:105E5C00232813B502D9002002B010BDA0F10B030A
:105E6C00022B1AD8174C2178BFF35B8F11F001016C
:105E7C000BD120460191FEF714F9019928B1124873
:105E8C00FFF76AFA2046FEF711F90F4B1878FFF767
:105E9C00DBF80028DFD10120DEE7012809D800F06B
:105EAC009BF80021007CFFF787F880F00100C0B25E
:105EBC00D2E709380128EED800F04EF8007CFFF745
:105ECC0023F8F2E7C0E60320C4E60320232838B504
:105EDC0004460D460AD8FF2908D0FFF7B9FF28B1B0
:105EEC0029462046BDE83840FEF79EBF38BD38B580
:105EFC0004460D46FEF7A0FFFF2810D0062804D854
:105F0C004D2323FA00F0C30709D42046FFF7A0FF66
:105F1C0028B129462046BDE83840FEF795BF38BD6C
:105F2C007047000038B5044614252A46002100F0BD
:105F3C008DF825804025074925812846258200F0CB
:105F4C006FF804496060284600F06AF8E06020466B
:105F5C0038BD00BFBC630B0030B50E4D2978BFF3C4
:105F6C005B8F11F0010487B011D12846FEF799F828
:105F7C0068B101A8FFF7D6FF01AA21460648FFF732
:105F8C00C5FD2846FEF792F8044800F04BF802488D
:105F9C0007B030BD34E7032038E703202D5F0B003A
:105FAC007047000038B50A4B036001230446436177
:105FBC000849202000F034F8202560600549A560D0
:105FCC00284600F02DF8C4E90305204638BD00BF73
:105FDC0018000100BC630B0030B50E4D2978BFF3DF
:105FEC005B8F11F0010487B011D12846FEF759F8E8
:105FFC0068B16846FFF7D6FF6A4621460648FFF7A8
:10600C00C5FD2846FEF752F8044800F00BF802488C
:10601C0007B030BD50E7032054E70320AD5F0B0001
:10602C00FEF73BB8002301461A46184600F044B868
:10603C000A44914200F1FF3300D1704710B511F8BA
:10604C00014B03F8014F9142F9D110BD02440346B4
:10605C00934200D1704703F8011BF9E738B5104B98
:10606C001D68AB6B0446B3B91820FFF711F9024653
:10607C00A86320B90B4B0C484221FFF719F90B49C7
:10608C000B4BC0E900130B4B83600B238381002166
:10609C000120C2E90401AB6B00221C615A6138BDBE
:1060AC00C8E50320BD630B00D4630B000E33CDABEE
:1060BC0034126DE6ECDE05002DE9F843DFF8B8800C
:1060CC000646D8F800001F460D46914600F056F8DB
:1060DC00254B1C6834B9254C1C60254B13B11B682F
:1060EC00C4F8883063681F2B07DDD8F8000000F077
:1060FC0047F84FF0FF30BDE8F8834EB3D4F8880072
:10610C0088B91C4B23B9D8F8000000F038F8F0E738
:10611C004FF48470FFF7BCF80028F4D00023C0E9DA
:10612C004033C4F88800636840F8239001229A40F9
:10613C0000EB8301D0F800311343C0F80031022E7C
:10614C00C1F8807002BFD0F804311343C0F8043199
:10615C006368D8F800005A1C0233626044F823507C
:10616C0000F00EF80020C6E7F4E7032068E70320F0
:10617C00000000009D520B002CE603207047704776
:10618C00704700002D400B0069400B0091400B0044
:10619C0095400B00000000004164616672756974E3
:1061AC00204D505231323120436170616369746902
:1061BC00766520546F7563682073656E736F7220FB
:1061CC0074657374004D5052313231206E6F7420EF
:1061DC00666F756E642C20636865636B20776972DB
:1061EC00696E673F004D505231323120666F756ECB
:1061FC0064210020746F7563686564200020746FDF
:10620C007563686564000000000000000000000079
:10621C003B530B0031530B0027530B001D530B004A
:10622C0011530B0005530B00055D0B000D5D0B00AE
:10623C00F9520B00F1520B00E7520B00DD520B0030
:10624C00355E0B003D5D0B00455D0B000008101822
:10625C00202830386170700025592D256D2D25644E
:10626C005425483A254D3A2553257A0061736374B9
:10627C00696D65000000000000000000AD580B00C7
:10628C009D580B009F580B00000000000000000000
:10629C0093590B00FB590B00D1590B0019560B00ED
:1062AC00C3590B0095590B00A5590B00F5590B0060
:1062BC0001570B00B5590B008D590B000000000065
:1062CC00000000009D5A0B00095B0B00E15A0B000B
:1062DC0019560B00B15A0B00CD5A0B00BF5A0B00CC
:1062EC00DB5A0B0001570B009F5A0B00A35A0B00F3
:1062FC000000000000000000415B0B008B5B0B00FA
:10630C00635B0B00435B0B006B5B0B00735B0B0065
:10631C007B5B0B00835B0B0001570B000000000044
:10632C0000000000A75C0B009D5C0B00935C0B0055
:10633C00495C0B00875C0B007B5C0B00055D0B0064
:10634C000D5D0B006F5C0B00675C0B005D5C0B0064
:10635C00535C0B00355E0B003D5D0B00455D0B0087
:10636C00D0E6032024E703202CE7032000000000E4
:10637C0000000000C55C0B00CF5C0B00D95C0B006F
:10638C00E35C0B00ED5C0B00F95C0B00055D0B0096
:10639C000D5D0B00155D0B00215D0B00295D0B00E5
:1063AC00335D0B00355E0B003D5D0B00455D0B0056
:1063BC00005245454E54206D616C6C6F63207375B3
:1063CC0063636565646564002F6D6E742F776F72FF
:1063DC006B73706163652F776F726B73706163653C
:1063EC002F4743432D31302D706970656C696E6594
:1063FC002F6A656E6B696E732D4743432D31302DBB
:10640C00706970656C696E652D34385F323032306E
:10641C00313132345F313630363138303634312F19
:10642C007372632F6E65776C69622F6E65776C691A
:10643C00622F6C6962632F7374646C69622F726172
:10644C006E642E63000000000D430B00A1480B008E
:10645C0045530B00E5550B0009560B002D570B004F
:10646C003D570B0059570B00B15C0B00495E0B00FC
:10647C00040000001400000003000000474E55000B
:10648C00EDE5AD3879D3900559E375EBC507F4DD2F
:04649C00B73EFD8585
:1064A00078620B00CCE50320000000000000000033
:1064B00000000000000000000000000000000000DC
:1064C00000000000000000000000000000000000CC
:1064D00000000000000000000000000000000000BC
:1064E00000000000000000000000000000000000AC
:1064F000000000000000000000000000000000009C
:0C6500000000000000000000F8E703208D
:04650C00000000008B
:1065160000000102030405060708090A0B0C0D0E0C
:106526000F101112131415161718191A1B1C1D1EFD
:046536001F202800FA
:04653A007856341249
:04000003B000401CED
:00000001FF
