:02000002B0004C
:1040000000400B00025A0B00000006000C000502E5
:084010000401D51700000000B7
:0440180098560B00AB
:10401C00034613F8012B002AFBD1181A01387047FC
:10402C0009480A49884208B505D0094A824202D09B
:10403C00121A01F081FA0748074A0021121A01F0FE
:10404C0089FA014808BD00BF14E6032068590B002B
:10405C0080E6032080E60320FCE7032070B5074EC2
:10406C00074C00F0BBFEA41BA4080025AC4200D1F9
:10407C0070BD56F8043B98470135F7E71C590B0007
:10408C0044590B0000F014B808B500F087F8BDE8EF
:10409C00084000F05BBE00F05DBC00F063BC007833
:1040AC00B0FA80F04009704701230370704700009C
:1040BC007FB5364800F04AFA354800F047FA3548E3
:1040CC0000F044FA314800F09DF9314800F09AF9BB
:1040DC00304800F097F92D48482100F069F92C4838
:1040EC00482100F065F948212A4800F061F900F0F8
:1040FC0081FF4FF4E13100F06DFF002000F066FA13
:10410C0041F288350446002000F060FA001B61F192
:10411C000001A84271F1000307D200F06BFF00F020
:10412C005DFF10B900F006FCEDE700F063FF00F056
:10413C0055FF00F05FFF184900F07BFD0024264678
:10414C00FF250023A1B21A4610480095039100F0F8
:10415C001EF903990E4800962B46002200F017F921
:10416C00013403990B48009600232A4600F00FF9FE
:10417C003B2CE5D1054800F045F9054800F042F923
:10418C00044804B0BDE8704000F03CB990E6032050
:10419C00A0E60320B0E60320AC560B0070470000ED
:1041AC0013B50021012000F039FB134B0022C3E9A9
:1041BC000022A2F5803206249A60032000F026FB30
:1041CC000094042305223B210C4800F0CAF8234636
:1041DC00009407223B210A4800F0C3F800940F23F7
:1041EC000E223B21074800F0BCF8074802B0BDE89E
:1041FC00104000F00BB800BF80E6032090E60320CF
:10420C00A0E60320B0E603208CE603200022026027
:10421C00704700001F2886BF054A00F01F004FF0B2
:10422C00A042012303FA00F0C2F80C05704700BF4E
:10423C000003005010B504460121807801F0E4F829
:10424C00E078012101F0E0F80E49A3780A68180122
:10425C0002EB0313105C5B7803F01F0343EA40107E
:10426C00FFF7D8FFE3780A68180102EB0313105C20
:10427C005B7803F01F03BDE8104043EA4010FFF7E2
:10428C00C9BF00BFCCE60320F8B5254F254D064627
:10429C000924013C14F0FF0441D0B3783A681801AA
:1042AC0002EB0313105C5B7803F01F0343EA40102E
:1042BC000B0631D51F28C6BF00F01F002A464FF051
:1042CC00A042012303FA00F0C2F808053A68F3781B
:1042DC00180102EB0313105C5B7803F01F0343EA35
:1042EC0040131F2BC6BF03F01F03AC464FF0A04C6E
:1042FC00012000FA03F3CCF80835F378180102EB2F
:10430C000313105C5B7803F01F0343EA4010490071
:10431C00FFF780FFC9B2BCE7FFF77CFFD6E7F8BD1B
:10432C00CCE60320000300500288806802EB4202B6
:10433C00002101F00FB938B5044680680D4608B16C
:10434C0000F010FB05EB450080B200F003FBA06011
:10435C0028B125802046BDE83840FFF7E5BF208016
:10436C0038BD38B59DF81050C370002303718360BD
:10437C0005F003030373C5F38103C5F3011504466C
:10438C00827043738573FFF7D6FF204638BD10B596
:10439C0004888C420BD9846801EB41012144047BD5
:1043AC000A55427B8B54837B9DF80820CA5410BD60
:1043BC00013101717047000013B50B4C2178BFF32C
:1043CC005B8F11F001010BD120460191FFF767FEC5
:1043DC00019928B1054800F021FB2046FFF764FE47
:1043EC00024802B010BD00BFC0E60320C4E60320A3
:1043FC0007B50190FFF7E0FF019903B05DF804EBFE
:10440C0000F0C0BB2DE9F04184680746002C00F099
:10441C0085808378068890F80480FF2B41D100209A
:10442C00FFF7E6FF0020FFF7E3FF0020FFF7E0FFB8
:10443C000020FFF7DDFF3B79EBB1FF20FFF7D8FF42
:10444C00E51C14F8010B10FB08F0000AFFF7D0FF75
:10445C00AC42F6D1013EB6B2002EEED100243A8821
:10446C00E3B20F32B3EB121F04F1010456DAFF2052
:10447C00FFF7BEFFF3E70334FF20FFF7B9FF14F893
:10448C00030CFFF7B5FF013E14F8020CFFF7B0FF69
:10449C00B6B214F8010CFFF7ABFF0334002EEBD1CE
:1044AC00DCE7042500213846013DFFF7EDFE15F051
:1044BC00FF05F7D13B7903B3FF213846FFF7E4FE44
:1044CC00E51C14F8011B11FB08F1090A3846FFF72B
:1044DC00DBFEAC42F5D1013EB6B2002EECD100248D
:1044EC003A88E3B20F32B3EB121F04F1010415DA70
:1044FC00FF213846FFF7C8FEF2E7FF213846FFF7E9
:10450C00C3FEE51C14F8011B3846FFF7BDFEAC4298
:10451C00F8D1013EB6B2002EEFD1E0E7BDE8F08154
:10452C0008B5FFF749FF00F083FAFFF745FF0821B4
:10453C0000F002FBFFF740FF012100F08DFAFFF7BE
:10454C003BFFBDE80840002100F09ABA8378FF2BAE
:10455C0001D1FFF7E5BFFFF76DBE000008B500F015
:10456C0015F8014B186008BDCCE6032008B5024BCA
:10457C001B689B68019308BD6802030008B5024BD9
:10458C001B68DB68019308BD6802030008B5024B89
:10459C001B681B68019308BD2C02030008B5024B75
:1045AC001B689B68019308BD2C02030008B5024BE5
:1045BC001B685B68019308BD1802030008B5024B29
:1045CC001B685B69019308BD1802030008B5024B18
:1045DC001B68DB6D019308BD1802030008B5024B84
:1045EC001B685B6C019308BD4802030008B5024BC5
:1045FC001B685B69019308BD6402030008B5024B9C
:10460C001B68DB68019308BD3C02030008B5024B34
:10461C001B681B69019308BD3C02030008B5024BE3
:10462C001B685B69019308BD3C02030008B5024B93
:10463C001B689B69019308BD3C02030008B5024B43
:10464C001B68DB69019308BD3C02030008B5024BF3
:10465C001B681B6A019308BD3C02030008B5024BA2
:10466C001B689B6A019308BD3C02030008B5024B12
:10467C001B681B6C019308BD3C02030008B5024B80
:10468C001B681B6A019308BD2802030008B5024B86
:10469C001B685B6A019308BD2802030008B5024B36
:1046AC001B689B6A019308BD2802030008B5024BE6
:1046BC001B68DB6A019308BD2802030008B5024B96
:1046CC001B681B6B019308BD2802030008B5024B45
:1046DC001B685B6B019308BD2802030008B5024BF5
:1046EC001B681B6C019308BD2802030008B5024B24
:1046FC001B681B68019308BD3002030008B5024B10
:10470C001B689B68019308BD3002030008B5024B7F
:10471C001B68DB68019308BD3002030008B5024B2F
:10472C001B681B69019308BD3002030008B5024BDE
:10473C001B685B69019308BD3002030008B5024B8E
:10474C001B68DB69019308BD3002030008B5024BFE
:10475C001B681B6A019308BD3002030008B5024BAD
:10476C001B685B6A019308BD3002030008B5024B5D
:10477C001B681B6C019308BD3002030008B5024B8B
:10478C001B685B6C019308BD3002030008B5024B3B
:10479C001B681B68019308BD4C02030008B5024B53
:1047AC001B685B68019308BD4C02030008B5024B03
:1047BC001B681B69019308BD4C02030008B5024B32
:1047CC001B685B69019308BD4C02030008B5024BE2
:1047DC001B689B69019308BD4C02030008B5024B92
:1047EC001B68DB69019308BD4C02030008B5024B42
:1047FC001B681B6A019308BD4C02030008B5024BF1
:10480C001B689B6A019308BD4C02030008B5024B60
:10481C001B685B68019308BD2002030008B5024BBE
:10482C001B68DB6A019308BD2002030008B5034B2B
:10483C001B68D3F88830019308BD000020020300E8
:10484C0008B5034B1B68D3F89430019308BD0000E6
:10485C002002030008B5024B1B685B68019308BD7E
:10486C004002030008B5024B1B689B68019308BD0E
:10487C004002030008B5024B1B68DB68019308BDBE
:10488C004002030008B5024B1B681B69019308BD6D
:10489C004002030008B5024B1B685B69019308BD1D
:1048AC004002030008B5024B1B689B69019308BDCD
:1048BC004002030008B5024B1B68DB69019308BD7D
:1048CC004002030008B5024B1B681B6A019308BD2C
:1048DC004002030008B5024B1B681B6B019308BD1B
:1048EC004002030008B5024B1B685B6B019308BDCB
:1048FC004002030008B5024B1B681B6C019308BDFA
:10490C004002030008B5024B1B685B6C019308BDA9
:10491C004002030008B5024B1B685B6D019308BD98
:10492C004002030008B5024B1B689B6D019308BD48
:10493C004002030008B5024B1B689B68019308BD3D
:10494C004402030008B5024B1B68DB6B019308BDE6
:10495C004402030008B5024B1B681B68019308BD99
:10496C001C02030008B5024B1B685B68019308BD71
:10497C001C02030008B5024B1B681B6C019308BD9D
:10498C001C02030008B5024B1B685B6C019308BD4D
:10499C001C020300002240681146FFF793BF00225F
:1049AC0040681146FFF79EBF40680022FFF792BF98
:1049BC004068002281F00101FFF77CBF00234068B2
:1049CC001A461946FFF76EBF002340681A4619466F
:1049DC00FFF760BF002240681146FFF753BF00226B
:1049EC0040681146FFF73EBF406800220221FFF7E6
:1049FC0041BF002340681A46FFF72CBF024B03222D
:104A0C005A60024A1A607047D0E60320E4560B0045
:104A1C000021FFF7B3BE0021FFF7A8BE10B5044676
:104A2C0008462170FFF78AFE00236360204610BD04
:104A3C0013B504460078FFF7EEFF58B920780190C3
:104A4C004FF6FF71FFF752FE019802B0BDE810401F
:104A5C00FFF7DEBF02B010BD13B50446007801911C
:104A6C00FFF7D9FF019948B920780190FFF746FE6E
:104A7C00019802B0BDE81040FFF7CABF02B010BDEC
:104A8C0013B5044600780191FFF7C5FF019948B9A9
:104A9C0020780190FFF73AFE019802B0BDE8104073
:104AAC00FFF7B6BF02B010BD400830B51860002447
:104ABC0018688842E5B206D90134082C02D04008A7
:104ACC001860F5E70725024B5B5D137030BD00BF26
:104ADC0020570B002DE9F04188B0002304460078E4
:104AEC0002930E461746FFF796FF054600BB94F857
:104AFC0000800146142203A800F02CFD0B232A464B
:104B0C0003A94046ADF80C30FFF728FE04988DF849
:104B1C00075002AB0DF1070207FB06F1FFF7C4FFCC
:104B2C0020789DF80710FFF7F9FD2078FFF770FF4C
:104B3C00029808B0BDE8F08138B5044600780D46FF
:104B4C00FFF769FF0346D0B9616899B10C4A12F8B6
:104B5C00010B854202D00133082BF8D10133DBB2B3
:104B6C000122D9402046FFF7B5FF2078BDE8384038
:104B7C00FFF74EBF20782946FFF7D0FDF5E738BD8B
:104B8C0020570B0008B50078FFF7D0FDC0B208BD68
:104B9C00054B02221A60054B054A9A600020C3E9B6
:104BAC000000FFF733BE00BFE4E60320D8E6032085
:104BBC000000FFFF024800230360FFF70FBD00BF9A
:104BCC00E8E60320F8B506460D468F180024BD42D2
:104BDC000CD0336815F8011B9B6830469847031EB0
:104BEC0001DB1C44F3E7002C08BF1C462046F8BD33
:104BFC0013B50446084659B10191FFF709FA236829
:104C0C000199DB680246204602B0BDE81040184707
:104C1C0002B010BD03689B68184738B50D210546D6
:104C2C00FFF7F8FF0A2104462846FFF7F3FF20445C
:104C3C0038BD38B50546FFF7DBFF04462846FFF7BD
:104C4C00ECFF204438BD30B58BB00023012A8DF821
:104C5C00243098BF0A2209AC0D46B1FBF2F101FBDE
:104C6C00125303F0FF03092B94BF30333733DBB2FD
:104C7C00AA4204F8013DEFD92146FFF7B9FF0BB06A
:104C8C0030BD10B50446FFF799FCE0602368204660
:104C9C005B699847002808DAFFF790FCE368C01AB4
:104CAC00A3689842F2D34FF0FF3010BD2DE9F041CC
:104CBC0007460C468E180D46B542A5EB040807D0E6
:104CCC003846FFF7DEFF031E02DB05F8013BF3E776
:104CDC004046BDE8F0810000014B024A1A60704763
:104CEC00ECE6032028570B00024B1A68024B1A60A3
:104CFC00704700BF14E60320F0E60320014B0022AE
:104D0C009A607047F4E60320014B1860704700BFAF
:104D1C0018E6032008B50B4B43B100F06BF90368A0
:104D2C001B699847002801DDAFF30080064B43B1A7
:104D3C0000F096FB03681B699847002801DDAFF370
:104D4C00008008BD000000000000000008B5FFF75F
:104D5C00E1FFFFF733FC014B186008BD4CE7032063
:104D6C000548064A064908B5121A00F0E5FB054B42
:104D7C00054A1A6008BD00BF00F4032004F40320A8
:104D8C00D4590B0000F403201E1C279A07B50023EE
:104D9C0000931A466FF07701FFF752FD03B05DF8F0
:104DAC0004FB000007B543880A2B08D0502B0BD10D
:104DBC00094B1B684BB103B05DF804EB1847FFF7C8
:104DCC00E5FF03B05DF804FB002300931A466FF077
:104DDC007701FFF735FDF4E708E7032010B512481B
:104DEC000021FFF7CFFD114B1A68114B9A42114B62
:104DFC000CBF012200221A7001D0FFF7B1FFFFF7A0
:104E0C00D5FB044600F0AEFB0B4B13B12046AFF3C1
:104E1C00008000210848FFF795FDBDE810400748C9
:104E2C000021FFF703BD00BF154D0B0000F403205C
:104E3C001E1C279A04E7032000000000B14D0B0054
:104E4C00704710B518210446FFF727F9204610BD0E
:104E5C00F0B5037D062B8DB00E4600F104074FF024
:104E6C00000412D000F1080515F8011D0A22304685
:104E7C00FFF7E9FEAF42044419D0002CF4D02E21E8
:104E8C003046FFF7C7FE0444EEE72F236A46394647
:104E9C000A208DF80040FFF7A9FB6846FFF7B8F829
:104EAC0033680246DB68694630469847044620461C
:104EBC000DB0F0BD10B5054B0446112240F8043B73
:104ECC00002100F047FB204610BD00BF50570B00DF
:104EDC000346074A10B543F8042B01F1100251F8B0
:104EEC00044B43F8044B9142F9D10A781A7010BD67
:104EFC0050570B0010B59DF8084044EA032343EAD1
:104F0C00024242EA016104234160037510BD0000B6
:104F1C0007B5064B0360CB7800938B784A780978F9
:104F2C00FFF7E8FF03B05DF804FB00BF50570B0020
:104F3C00417470477047704708B50021007CFFF73B
:104F4C0045FC40EAE07008BD08B50121007CFFF784
:104F5C003DFC40EAE07008BD08B5007CFFF72EFC74
:104F6C0020EAE07008BD08B5007CFFF71FFC20EAC2
:104F7C00E07008BD13B50446007C0191FFF71EFCE0
:104F8C000028019901DC607C20B1207CFFF726FC15
:104F9C0020EAE07002B010BD007CFFF727BC10B512
:104FAC0014210446FFF779F8204610BD10B54FF4D4
:104FBC007A73044608460021C4E90113044B2360AC
:104FCC000123207463741146FFF7E0FB204610BDEB
:104FDC0064570B00007C0022FFF7E0BB007CFFF75E
:104FEC000DBC10B514220446002100F0B3FA204683
:104FFC0010BD000010B50F4C88B003A8FFF7F1FFEF
:10500C002178BFF35B8F11F001010FD12046019184
:10501C00FFF745F8019948B103AA0748FFF7C6FF07
:10502C002046FFF741F8054800F080FA024808B026
:10503C0010BD00BF0CE7032010E70320414F0B000D
:10504C0070474174704708B5007CFFF707FB20EAF6
:10505C00E07008BD08B5007CFFF7D8FA20EAE070D4
:10506C0008BD08B5007CFFF7E1FA40EAE07008BD26
:10507C0008B5007CFFF7D2FA40EAE07008BD007C6E
:10508C00FFF7DCBA37B5457C04462DB1207C03B064
:10509C00BDE83040FFF7B2BA007C0191FFF7DEFAB1
:1050AC0000280199F2DC284603B030BD10B514215C
:1050BC000446FEF7F2FF204610BD000010B54FF479
:1050CC007A730446084611460022C4E90123044BB6
:1050DC002360012320746374FFF7C8FA204610BDC7
:1050EC0098570B007047F8B5064615460C468F18B6
:1050FC00BC4206D0336814F8011B9B6830469847B5
:10510C00F6E72846F8BD007C0022FFF7B7BA007C12
:10511C000021FFF7BBBA007C0021FFF7BFBA007C6F
:10512C000021FFF7C3BA007C0021FFF7C7BA10B506
:10513C0014210446FEF7B1FF204610BD38B50446D5
:10514C0015464FF47A730022C4E90123094B2174EC
:10515C00084623602946FFF7C1FABF3008D16B69B6
:10516C00DB0705D56868FFF7FDFBE868FFF7FAFB7E
:10517C00204638BDCC570B00002240681146FFF783
:10518C0081BB002240681146FFF79CBB002240689F
:10519C001146FFF7A7BB40680022FFF79BBB406896
:1051AC00002281F00101FFF785BB002340681A46FD
:1051BC001946FFF777BB002340681A461946FFF7DC
:1051CC0069BB002240681146FFF74CBB40680022C7
:1051DC000221FFF74FBB002340681A46FFF73ABB8A
:1051EC00024B04225A60024A1A60704724E70320DB
:1051FC00F8570B00002340681A46FFF72BBB40689A
:10520C0000220221FFF736BB002240681146FFF74F
:10521C0029BB002240681146FFF734BB00234068CD
:10522C001A461946FFF736BB002340681A46194642
:10523C00FFF738BB40680021FFF75CBB40680021DA
:10524C00FFF760BB4068002281F00101FFF732BB21
:10525C0040680022FFF73EBB002240681146FFF772
:10526C0041BB002240681146FFF72CBB406800216F
:10527C00FFF758BB2DE9F04395B014460D46074691
:10528C00FFF718FE00211C220DA8009100F062F916
:10529C0040230C9320466B460CAA0021FFF76EF9B5
:1052AC00044600284BD1024601216868FFF7EAFA50
:1052BC000221804622466868FFF7E4FA009E814688
:1052CC002146002E3BD0002939D17368022B03D024
:1052DC000A2B11D0F669F4E7B8F1000FFAD0716916
:1052EC0006A8043107ADFFF713FE0FCD3C1D0FC40C
:1052FC002B6823704146EDE7B9F1000FEAD07469D1
:10530C00102201A800F026F906238DF8143001AD07
:10531C0004F108031834186859682A4603C2083384
:10532C00A3421546F7D101A906A807ADFFF7D0FD9A
:10533C000FCD3C1D0FC42B6823704946CAE700985B
:10534C00FFF714F9384615B0BDE8F083033802288E
:10535C009ABF024B53F820000148704734580B0099
:10536C002CE7032008B500224068FFF7D3FABDE80C
:10537C000840FFF7EBBF0000024B034A1A60002203
:10538C005A6070472CE7032048580B00232813B5AC
:10539C0002D9002002B010BDA0F10B03022B1AD8C9
:1053AC00174C2178BFF35B8F11F001010BD1204614
:1053BC000191FEF774FE019928B11248FFF72EFBFC
:1053CC002046FEF771FE0F4B1878FFF7BFF9002847
:1053DC00DFD10120DEE7012809D800F081F8002197
:1053EC00007CFFF773F980F00100C0B2D2E70938F6
:1053FC000128EED800F034F8007CFFF727F9F2E72B
:10540C00C0E60320C4E60320232838B504460D4625
:10541C000AD8FF2908D0FFF7B9FF28B12946204642
:10542C00BDE83840FFF7BAB838BD704738B5044608
:10543C0014252A46002100F08DF8258040250749C7
:10544C0025812846258200F06FF8044960602846C3
:10545C0000F06AF8E060204638BD00BF84580B00AD
:10546C0030B50E4D2978BFF35B8F11F0010487B076
:10547C0011D12846FEF713FE68B101A8FFF7D6FF3D
:10548C0001AA21460648FFF719FE2846FEF70CFE36
:10549C00044800F04BF8024807B030BD34E7032055
:1054AC0038E7032037540B007047000038B50A4B1F
:1054BC0003600123044643610849202000F034F8BE
:1054CC00202560600549A560284600F02DF8C4E948
:1054DC000305204638BD00BF1800010084580B009E
:1054EC0030B50E4D2978BFF35B8F11F0010487B0F6
:1054FC0011D12846FEF7D3FD68B16846FFF7D6FFF9
:10550C006A4621460648FFF719FE2846FEF7CCFDF1
:10551C00044800F00BF8024807B030BD50E70320F8
:10552C0054E70320B5540B00FEF7B5BD002301462C
:10553C001A46184600F044B80A44914200F1FF3371
:10554C0000D1704710B511F8014B03F8014F91428F
:10555C00F9D110BD02440346934200D1704703F8C1
:10556C00011BF9E738B5104B1D68AB6B0446B3B99A
:10557C001820FFF7EFF90246A86320B90B4B0C4833
:10558C004221FFF7F7F90B490B4BC0E900130B4B0A
:10559C0083600B23838100210120C2E90401AB6BE2
:1055AC0000221C615A6138BD18E6032085580B0097
:1055BC009C580B000E33CDAB34126DE6ECDE0500BF
:1055CC002DE9F843DFF8B8800646D8F800001F46EE
:1055DC000D46914600F056F8254B1C6834B9254C05
:1055EC001C60254B13B11B68C4F8883063681F2BF3
:1055FC0007DDD8F8000000F047F84FF0FF30BDE8A9
:10560C00F8834EB3D4F8880088B91C4B23B9D8F86A
:10561C00000000F038F8F0E74FF48470FFF79AF9C7
:10562C000028F4D00023C0E94033C4F88800636834
:10563C0040F8239001229A4000EB8301D0F800310E
:10564C001343C0F80031022EC1F8807002BFD0F8AD
:10565C0004311343C0F804316368D8F800005A1CB5
:10566C000233626044F8235000F00EF80020C6E7C5
:10567C00F4E7032068E703200000000061490B00F9
:10568C007CE6032070477047704700002D400B00EC
:10569C0069400B0091400B0095400B00000000008E
:1056AC004164616672756974204D505231323120FB
:1056BC004361706163697469766520546F756368C2
:1056CC002073656E736F7220746573740000000034
:1056DC000000000000000000FF490B00F5490B0022
:1056EC00EB490B00E1490B00D5490B00C9490B00F4
:1056FC0041520B0049520B00BD490B00B5490B0040
:10570C00AB490B00A1490B0071530B0079520B00F4
:10571C0081520B000008101820283038617070007E
:10572C0025592D256D2D25645425483A254D3A25AE
:10573C0053257A0061736374696D65000000000085
:10574C00000000005D4E0B004D4E0B004F4E0B0049
:10575C000000000000000000434F0B00AB4F0B009B
:10576C00814F0B00D14B0B00734F0B00454F0B00BF
:10577C00554F0B00A54F0B00B94C0B00654F0B00A0
:10578C003D4F0B0000000000000000004D500B00CE
:10579C00B9500B0091500B00D14B0B0061500B001A
:1057AC007D500B006F500B008B500B00B94C0B0055
:1057BC004F500B0053500B00000000000000000085
:1057CC00F1500B003B510B0013510B00F3500B002D
:1057DC001B510B0023510B002B510B0033510B00B1
:1057EC00B94C0B000000000000000000E3510B005E
:1057FC00D9510B00CF510B0085510B00C3510B003D
:10580C00B7510B0041520B0049520B00AB510B002E
:10581C00A3510B0099510B008F510B0071530B00CE
:10582C0079520B0081520B00D0E6032024E70320B1
:10583C002CE70320000000000000000001520B00C8
:10584C000B520B0015520B001F520B0029520B0070
:10585C0035520B0041520B0049520B0051520B00B8
:10586C005D520B0065520B006F520B0071530B0015
:10587C0079520B0081520B00005245454E54206D5D
:10588C00616C6C6F6320737563636565646564003C
:10589C002F6D6E742F776F726B73706163652F77DA
:1058AC006F726B73706163652F4743432D31302DDD
:1058BC00706970656C696E652F6A656E6B696E7365
:1058CC002D4743432D31302D706970656C696E65C1
:1058DC002D34385F32303230313132345F31363042
:1058EC00363138303634312F7372632F6E65776CE6
:1058FC0069622F6E65776C69622F6C6962632F73B6
:10590C0074646C69622F72616E642E630000000017
:10591C00AD410B0069450B00094A0B009D4B0B0078
:10592C00C14B0B00E54C0B00F54C0B00094D0B006B
:08593C00ED510B0085530B0037
:10594400040000001400000003000000474E55004E
:10595400A47F2E6A01DB43D2F71F51A0FCC67C69E9
:045964009446C9A2FA
:1059680040570B001CE60320000000000000000068
:10597800000000000000000000000000000000001F
:10598800000000000000000000000000000000000F
:1059980000000000000000000000000000000000FF
:1059A80000000000000000000000000000000000EF
:1059B80000000000000000000000000000000000DF
:0C59C8000000000000000000F8E70320D1
:0459D40000000000CF
:1059DE0000000102030405060708090A0B0C0D0E50
:1059EE000F101112131415161718191A1B1C1D1E41
:0459FE001F2028003E
:045A0200785634128C
:04000003B000401CED
:00000001FF
